:060000000A128A110C280F
:10000800FE00030EF1000A08F2000A128A111628EF
:100018000A128A110F28F701F801F90183010A125F
:100028008A115E28831203138C1D1B281C2857284D
:100038001412141B202821282528941F2428252839
:100048002D28831603131410831203131413941307
:10005800141683160313941A3228332842281419C5
:10006800362837284228141C3A283B283728831278
:1000780003131308F0007008F9001416831603130D
:10008800941E47284828552814194B284C285528C9
:10009800141C4F2850284C2883120313130885007A
:1000A800141683128C1172088A00710E8300FE0EDA
:1000B8007E0E09000A128A117B200A128A110F305B
:1000C8008312031386008312031386090230F60095
:1000D8000430F500BA30F400F40B7028F50B7028E2
:1000E800F60B7028000067280A128A110C280A12D9
:1000F8008A11A7200A128A110A128A11BF200A122D
:100108008A110A128A11B6200A128A1150300A126C
:100118008A1191200A128A110800F300831603132A
:100128008715071673089300803094009413831280
:100138000313941614161408F0390638940083161D
:100148000313111408008316031788018901831605
:100158000313850186018801831203138501860133
:10016800880108008B170B17831603138C1583124D
:1001780003138C110800831603130F088F39603896
:060188008F000F140800B7
:04400E00D420FF3F7C
:00000001FF
