:060000000A128A110C280F
:10000800FE00030EF1000A08F2000A128A111628EF
:100018000A128A110F28F401F501F60183010A1268
:100028008A11AB280130F00070088312031385078A
:100038008C1D1F28202874281412141B24282528F6
:100048002928941F2828292830281308F000700828
:10005800F60014139413141683160313941A3528F0
:1000680036285128141939283A285128831203139D
:100078001308F0007008F6008C1114168316031389
:10008800141C4728482842288312031313088800A1
:100098005330F000F00B4E287128941A5428552834
:1000A8007128141D5828592871288312031313081E
:1000B800F0007008F60083160313141074088312F6
:1000C8000313930014165330F000F00B69288316BD
:1000D80003131418702871286B28831203138C11CA
:1000E80072088A00710E8300FE0E7E0E0900F3006E
:1000F8007308831603139300363083120313940096
:100108008030831603139400013091008715071679
:1001180008000A128A119E200A128A110A128A11EC
:10012800B6200A128A1150300A128A117B200A124C
:100138008A1108008316031788018901831603139F
:1001480085018801831203138501880108000A12BA
:100158008A118D200A128A11F401F40AB2280A12AF
:100168008A110C28831603130F088F3960388F0003
:040178000F14080058
:04400E00D420FF3F7C
:00000001FF
