:060000000A128A110C280F
:10000800FE00030EF1000A08F2000A128A111628EF
:100018000A128A110F28F401F501F60183010A1268
:100028008A119C28831203138C1D1B281C287228F4
:100038001412141B202821282528941F2428252839
:100048002C281308F0007008F600141394131416E3
:1000580083160313941A312832284F281419352887
:1000680036284F28831203131308F0007008F6008F
:100078008C11141683160313141C432844283E2895
:10008800831203131308F0007008F5005330F000D2
:10009800F00B4C286F28941A522853286F28141DE7
:1000A800562857286F28831203131308F000700886
:1000B800F6008316031314107408831203139300B5
:1000C80014165330F000F00B672883160313141826
:1000D8006E286F286928831203138C1172088A000E
:1000E800710E8300FE0E7E0E0900F300730883165E
:1000F8000313930036308312031394008030831661
:1001080003139400013091008715071608000A129E
:100118008A11A9200A128A110A128A11B4200A1215
:100128008A1150300A128A1179200A128A1108009D
:100138000A128A118B200A128A1175088312031376
:100148008800A1280A128A110C288316031788012F
:100158008901831603138801831203138801080099
:10016800831603130F088F3960388F000F140800A7
:04400E00D420FF3F7C
:00000001FF
