:100000000A128A11FC2F00308A000408840A820731
:100010000034533465346D34613466346F34723473
:100020006F34003447346534733474346F340034BF
:100DB600831603130F088F3960388F000F1408004D
:100DC6000A128A1123270A128A11E82E0A128A1198
:100DD6000028F200831203138813720886000A1291
:100DE6008A1105270A128A1108008316031788013B
:100DF6008901831603138601880183120313860172
:100E0600880108008312031308170730F1007D30AC
:100E1600F000F00B0C2FF10B0C2F831203130813A9
:100E26000800F200831203138817720886000A125C
:100E36008A1105270A128A118312031388130800E0
:100E46000A128A11F8260A128A110A128A11DB2658
:100E56000A128A110A128A1133270A128A11080005
:100E66000A128A11AD270A128A11F301F30A013018
:100E76000A128A117C270A128A110A300A128A116A
:100E860057270A128A110930F7007708F300013054
:100E96000A128A117C270A128A1101300A128A1153
:100EA60057270A128A110800F500F301F4016E2F84
:100EB6007308750784000A128A1103200A128A1120
:100EC6000A128A1114270A128A110130F30703182D
:100ED600F40A0030F4077308750784000A128A11B1
:100EE60003200A128A11003A031D7A2F7B2F5B2FEB
:100EF6000800F6009C2F73080F39FF3E80380A124F
:100F06008A11EC260A128A11AC2F73080F39FF3E9C
:100F1600C0380A128A11EC260A128A11AC2F7308FD
:100F26000F39FF3E80380A128A11EC260A128A11FE
:100F3600AC2F7608F400F5017508003A0319A42FC2
:100F4600922F7408013A03197E2F033A0319882F4A
:100F5600922F080083120313081388138601831641
:100F6600031386011A30F400F830F300F30BB92F9F
:100F7600F40BB92F000030300A128A11EC260A123F
:100F86008A110730F4007D30F300F30BC82FF40B01
:100F9600C82F30300A128A11EC260A128A11423002
:100FA600F300F30BD42F000030300A128A11EC261E
:100FB6000A128A113C300A128A11EC260A128A1188
:100FC6000C300A128A11EC260A128A1110300A1203
:100FD6008A11EC260A128A1101300A128A11EC26AD
:100FE6000A128A1106300A128A11EC260A128A118E
:0A0FF600080083010A128A11E32E9D
:04400E00D420FF3F7C
:00000001FF
