:100000000A128A11F82F00308A000408840A820735
:100010000034533465346D34613466346F34723473
:100020006F34003447346534733474346F340034BF
:100A9E00831603130F088F3960388F000F14080068
:100AAE000A128A118B250A128A1183160313111446
:100ABE0008000A128A118B250A128A118316031353
:100ACE0011150800F0000A128A118B250A128A11DC
:100ADE0070088312031393000800F0000A128A11A3
:100AEE008B250A128A1170088312031393000800D3
:100AFE00F200831203138813720886000A128A11F9
:100B0E00A7250A128A110800831603131419902DB3
:100B1E00912D8B2D11081F39031D962D972D8B2D81
:100B2E0008008316031788018901831603138501B4
:100B3E00860188018312031385018601880108004E
:100B4E008312031308170730F1007D30F000F00B0D
:100B5E00AE2DF10BAE2D8312031308130800F20015
:100B6E00831203138817720886000A128A11A725AA
:100B7E000A128A118312031388130800F2000A1254
:100B8E008A1157250A128A1172080A128A116925CA
:100B9E000A128A1171080A128A1174250A128A1110
:100BAE000A128A1160250A128A1108000A128A1185
:100BBE0098250A128A110A128A114F250A128A11D1
:100BCE000A128A11FC250A128A11003083120313AD
:100BDE00A3000130A2008630A100A030A0000A12AE
:100BEE008A11C2260A128A1108000A128A11432794
:100BFE000A128A11F301F30A01300A128A116B26C6
:100C0E000A128A110A300A128A1120260A128A1131
:100C1E000930F6007608F30001300A128A116B26AD
:100C2E000A128A1101300A128A1120260A128A111A
:100C3E000800F500F301F401372E730875078400E0
:100C4E000A128A1103200A128A110A128A11B62573
:100C5E000A128A110130F3070318F40A0030F40760
:100C6E007308750784000A128A1103200A128A116A
:100C7E00003A031D432E442E242E0800F800780857
:100C8E00F7007708F90079140A128A1157250A120B
:100C9E008A1179080A128A1169250A128A110030FE
:100CAE00F000F1000A128A1194260A128A117008B5
:100CBE00F700760884007708831380000A128A11E1
:100CCE0060250A128A110800F4008B2E73080F3962
:100CDE00FF3E80380A128A117F250A128A11932E3E
:100CEE0073080F39FF3EC0380A128A117F250A1287
:100CFE008A11932E73080F39FF3E80380A128A111B
:100D0E007F250A128A11932E7408013A03196D2E4B
:100D1E00033A0319772E812E08000A128A118B25A9
:100D2E000A128A118316031391150A128A118B2542
:100D3E000A128A11831203131308F200F3017208C8
:100D4E00F4007308F5000A128A118B250A128A1113
:100D5E00700871040319B42EB52EB92E8316031321
:100D6E009112BC2E83160313911611167508F100FD
:100D7E007408F00008008030831603139400831269
:100D8E00031394161408F0390838940083160313CD
:100D9E009101831203132008A4002108A500220844
:100DAE00A6002308A70002300310A40DA50DA60D62
:100DBE00A70DFF3E031DDB2E2708F3002608F200C9
:100DCE002508F1002408F0000030F7003D30F60051
:100DDE000930F5000030F4000A128A1192270A1227
:100DEE008A117008FF3E83160313930087150716AA
:100DFE0008000A128A11DD250A128A111530831293
:100E0E000313A8002808AB00831203132B08A800B5
:100E1E002808F10050300A128A11C5250A128A11CB
:100E2E00063083120313AA001330A900AD30A800B8
:100E3E00A80B1F2FA90B1F2FAA0B1F2F2C308312AD
:100E4E000313A8002808F60050300A128A1145260E
:100E5E000A128A11063083120313AA001330A90056
:100E6E00AD30A800A80B392FA90B392FAA0B392F9B
:100E7E000B2F0A128A1100288312031308138813EA
:100E8E0086018316031386011A30F400F830F3003E
:100E9E00F30B4F2FF40B4F2F000030300A128A1134
:100EAE007F250A128A110730F4007D30F300F30B10
:100EBE005E2FF40B5E2F30300A128A117F250A1234
:100ECE008A114230F300F30B6A2F000030300A1201
:100EDE008A117F250A128A113C300A128A117F2547
:100EEE000A128A110C300A128A117F250A128A11EF
:100EFE0010300A128A117F250A128A1101300A1245
:100F0E008A117F250A128A1106300A128A117F254C
:100F1E000A128A1108000030FC000030FB0000307D
:100F2E00FA000030F900730872047104700403199A
:100F3E00A12FA22FEF2FFD01FD0AB22F0130F800D5
:100F4E000310F00DF10DF20DF30DF80BA72F01307C
:100F5E00F8007808FD07F31FB52FB62FA52F013027
:100F6E00F8000310F90DFA0DFB0DFC0DF80BB82F60
:100F7E0073087702031DCD2F72087602031DCD2F45
:100F8E0071087502031DCD2F70087402031CD02F3B
:100F9E00D12FE02F7008F4027108031C710FF502B7
:100FAE007208031C720FF6027308031C730FF7020C
:100FBE00791401300310F30CF20CF10CF00CFF3E1F
:100FCE00031DE12F0130FD02031DEE2FEF2FB62F73
:100FDE007C08F3007B08F2007A08F1007908F00033
:100FEE00080083120313AB01AC0183010A128A11AC
:020FFE00002FC2
:04400E00D420FF3F7C
:00000001FF
