:100000000A128A11F82F00308A000408840A820735
:100010000034533465346D34613466346F34723473
:100020006F34003447346534733474346F340034BF
:100B7200831603130F088F3960388F000F14080093
:100B82000A128A11F5250A128A1183160313111407
:100B920008000A128A11F5250A128A118316031314
:100BA20011150800F0000A128A11F5250A128A119D
:100BB20070088312031393000800F0000A128A11CE
:100BC200F5250A128A117008831203139300080094
:100BD200F200831203138813720886000A128A1124
:100BE20011260A128A110800831603131419FA2D0A
:100BF200FB2DF52D11081F39031D002E012EF52D99
:100C020008008316031788018901831603138501DF
:100C12008601880183120313850186018801080079
:100C22008312031308170730F1007D30F000F00B38
:100C3200182EF10B182E8312031308130800F2006A
:100C4200831203138817720886000A128A1111266A
:100C52000A128A118312031388130800F2000A127F
:100C62008A11C1250A128A1172080A128A11D32521
:100C72000A128A1171080A128A11DE250A128A11D1
:100C82000A128A11CA250A128A1108000A128A1146
:100C920002260A128A110A128A11B9250A128A1127
:100CA2000A128A1166260A128A110030831203136D
:100CB200A3000130A2008630A100A030A0000A12D9
:100CC2008A1105270A128A1108000A128A1143277B
:100CD2000A128A11F301F30A01300A128A11AF26AD
:100CE2000A128A110A300A128A118A260A128A11F3
:100CF2000930F6007608F30001300A128A11AF2695
:100D02000A128A1101300A128A118A260A128A11DB
:100D12000800F500F301F401A12E730875078400A1
:100D22000A128A1103200A128A110A128A11202633
:100D32000A128A110130F3070318F40A0030F4078B
:100D42007308750784000A128A1103200A128A1195
:100D5200003A031DAD2EAE2E8E2E0800F400CF2ECB
:100D620073080F39FF3E80380A128A11E9250A12E8
:100D72008A11D72E73080F39FF3EC0380A128A1122
:100D8200E9250A128A11D72E73080F39FF3E8038DF
:100D92000A128A11E9250A128A11D72E7408013A19
:100DA2000319B12E033A0319BB2EC52E08000A12ED
:100DB2008A1147260A128A11153083120313A800DA
:100DC2002808AB002B08A8002808F10050300A12AE
:100DD2008A112F260A128A11063083120313AA00DF
:100DE2001330A900AD30A800A80BF52EA90BF52EE3
:100DF200AA0BF52E013083120313A80028088507D9
:100E0200E32E0A128A1100288030831603139400FD
:100E12008312031394161408F039083894008316C9
:100E220003139101831203132008A4002108A500D3
:100E32002208A6002308A70002300310A40DA50D66
:100E4200A60DA70DFF3E031D1E2F2708F30026083F
:100E5200F2002508F1002408F0000030F7003D30D0
:100E6200F6000930F5000030F4000A128A119227C8
:100E72000A128A117008FF3E831603139300871526
:100E820007160800831203130813881386018316BA
:100E9200031386011A30F400F830F300F30B4F2FDE
:100EA200F40B4F2F000030300A128A11E9250A1282
:100EB2008A110730F4007D30F300F30B5E2FF40B40
:100EC2005E2F30300A128A11E9250A128A11423045
:100ED200F300F30B6A2F000030300A128A11E92561
:100EE2000A128A113C300A128A11E9250A128A1161
:100EF2000C300A128A11E9250A128A1110300A12DC
:100F02008A11E9250A128A1101300A128A11E92589
:100F12000A128A1106300A128A11E9250A128A1166
:100F220008000030FC000030FB000030FA00003006
:100F3200F90073087204710470040319A12FA22F1F
:100F4200EF2FFD01FD0AB22F0130F8000310F00D62
:100F5200F10DF20DF30DF80BA72F0130F800780810
:100F6200FD07F31FB52FB62FA52F0130F800031090
:100F7200F90DFA0DFB0DFC0DF80BB82F7308770273
:100F8200031DCD2F72087602031DCD2F7108750245
:100F9200031DCD2F70087402031CD02FD12FE02F18
:100FA2007008F4027108031C710FF5027208031C29
:100FB200720FF6027308031C730FF70279140130E3
:100FC2000310F30CF20CF10CF00CFF3E031DE12FA9
:100FD2000130FD02031DEE2FEF2FB62F7C08F30028
:100FE2007B08F2007A08F1007908F0000800831209
:0E0FF2000313AB01AC0183010A128A11D82E41
:04400E00D420FF3F7C
:00000001FF
