:100000000A128A11FC2F00308A000408840A820731
:100010000034533465346D34613466346F34723473
:100020006F34003447346534733474346F340034BF
:100B8E00831603130F088F3960388F000F14080077
:100B9E000A128A1103260A128A11831603131114DC
:100BAE0008000A128A1103260A128A1183160313E9
:100BBE0011150800F0000A128A1103260A128A1172
:100BCE0070088312031393000800F0000A128A11B2
:100BDE0003260A128A117008831203139300080069
:100BEE00F200831203138813720886000A128A1108
:100BFE001F260A128A110800831603131419082ED1
:100C0E00092E032E11081F39031D0E2E0F2E032E33
:100C1E0008008316031788018901831603138501C3
:100C2E00860188018312031385018601880108005D
:100C3E008312031308170730F1007D30F000F00B1C
:100C4E00262EF10B262E8312031308130800F20032
:100C5E00831203138817720886000A128A111F2640
:100C6E000A128A118312031388130800F2000A1263
:100C7E008A11CF250A128A1172080A128A11E125E9
:100C8E000A128A1171080A128A11EC250A128A11A7
:100C9E000A128A11D8250A128A1108000A128A111C
:100CAE0010260A128A110A128A11C7250A128A11EF
:100CBE000A128A1197260A128A1100308312031320
:100CCE00A3000130A2008630A100A030A0000A12BD
:100CDE008A1109270A128A1108000A128A1155264A
:100CEE000A128A11153083120313A8002808F10086
:100CFE0050300A128A113D260A128A1106308312CA
:100D0E000313AA001330A900AD30A800A80B8D2E36
:100D1E00A90B8D2EAA0B8D2E792E0A128A11002860
:100D2E000A128A1147270A128A11F301F30A0130B7
:100D3E000A128A11E0260A128A110A300A128A1140
:100D4E00BB260A128A110930F6007608F30001302C
:100D5E000A128A11E0260A128A1101300A128A1129
:100D6E00BB260A128A110800F500F301F401D22EF7
:100D7E007308750784000A128A1103200A128A1159
:100D8E000A128A112E260A128A110130F30703184D
:100D9E00F40A0030F4077308750784000A128A11EA
:100DAE0003200A128A11003A031DDE2EDF2EBF2EFB
:100DBE000800F400002F73080F39FF3E80380A1226
:100DCE008A11F7250A128A11082F73080F39FF3E70
:100DDE00C0380A128A11F7250A128A11082F7308D1
:100DEE000F39FF3E80380A128A11F7250A128A112E
:100DFE00082F7408013A0319E22E033A0319EC2E58
:100E0E00F62E08008030831603139400831203130A
:100E1E0094161408F03908389400831603139101C0
:100E2E00831203132008A4002108A5002208A6009F
:100E3E002308A70002300310A40DA50DA60DA70DC3
:100E4E00FF3E031D222F2708F3002608F200250877
:100E5E00F1002408F0000030F7003D30F6000930B4
:100E6E00F5000030F4000A128A1196270A128A1130
:100E7E007008FF3E831603139300871507160800AC
:100E8E008312031308138813860183160313860136
:100E9E001A30F400F830F300F30B532FF40B532FEA
:100EAE00000030300A128A11F7250A128A11073013
:100EBE00F4007D30F300F30B622FF40B622F303011
:100ECE000A128A11F7250A128A114230F300F30B27
:100EDE006E2F000030300A128A11F7250A128A117D
:100EEE003C300A128A11F7250A128A110C300A12A6
:100EFE008A11F7250A128A1110300A128A11F72563
:100F0E000A128A1101300A128A11F7250A128A1161
:100F1E0006300A128A11F7250A128A1108000030CB
:100F2E00FC000030FB000030FA000030F9007308BE
:100F3E007204710470040319A52FA62FF32FFD015F
:100F4E00FD0AB62F0130F8000310F00DF10DF20D71
:100F5E00F30DF80BAB2F0130F8007808FD07F31FE7
:100F6E00B92FBA2FA92F0130F8000310F90DFA0D81
:100F7E00FB0DFC0DF80BBC2F73087702031DD12F50
:100F8E0072087602031DD12F71087502031DD12F31
:100F9E0070087402031CD42FD52FE42F7008F402AE
:100FAE007108031C710FF5027208031C720FF60212
:100FBE007308031C730FF702791401300310F30C3E
:100FCE00F20CF10CF00CFF3E031DE52F0130FD027B
:100FDE00031DF22FF32FBA2F7C08F3007B08F200CB
:100FEE007A08F1007908F000080083010A128A11CC
:020FFE00742E4F
:04400E00D420FF3F7C
:00000001FF
