:100000000A128A11FC2F00308A000408840A820731
:100010000034533465346D34613466346F34723473
:100020006F34003447346534733474346F340034BF
:100D9E008316031391019401871507160800831615
:100DAE0003130F088F3960388F000F1408000A12D2
:100DBE008A111E270A128A11E32E0A128A1100289E
:100DCE00F200831203138813720886000A128A1126
:100DDE0000270A128A110800831603178801890159
:100DEE00831603138601880183120313860188017B
:100DFE0008008312031308170730F1007D30F0004E
:100E0E00F00B072FF10B072F8312031308130800A3
:100E1E00F200831203138817720886000A128A11D1
:100E2E0000270A128A1183120313881308000A126C
:100E3E008A11F3260A128A110A128A11D6260A126A
:100E4E008A110A128A113B270A128A110030F30006
:100E5E000130F2008630F100A030F0000A128A1143
:100E6E00CF260A128A1108000A128A11AD270A1219
:100E7E008A11F301F30A01300A128A1184270A1229
:100E8E008A110A300A128A115F270A128A11093052
:100E9E00F6007608F30001300A128A1184270A122E
:100EAE008A1101300A128A115F270A128A1108006C
:100EBE00F500F301F401762F7308750784000A120A
:100ECE008A1103200A128A110A128A110F270A1296
:100EDE008A110130F3070318F40A0030F40773087F
:100EEE00750784000A128A1103200A128A11003A29
:100EFE00031D822F832F632F0800F400A42F730885
:100F0E000F39FF3E80380A128A11E7260A128A111B
:100F1E00AC2F73080F39FF3EC0380A128A11E7262C
:100F2E000A128A11AC2F73080F39FF3E80380A124D
:100F3E008A11E7260A128A11AC2F7408013A031996
:100F4E00862F033A0319902F9A2F0800831203134A
:100F5E000813881386018316031386011A30F400D2
:100F6E00F830F300F30BB92FF40BB92F000030302B
:100F7E000A128A11E7260A128A110730F4007D3010
:100F8E00F300F30BC82FF40BC82F30300A128A115E
:100F9E00E7260A128A114230F300F30BD42F000019
:100FAE0030300A128A11E7260A128A113C300A12D0
:100FBE008A11E7260A128A110C300A128A11E726C4
:100FCE000A128A1110300A128A11E7260A128A11A1
:100FDE0001300A128A11E7260A128A1106300A1205
:100FEE008A11E7260A128A11080083010A128A1151
:020FFE00DE2EE5
:04400E00D420FF3F7C
:00000001FF
