:100000000A128A11F72F00308A000408840A820736
:100010000034533465346D34613466346F34723473
:100020006F34003452346F346A346F3420342034E7
:1000300020340034563465347234643465342034EA
:1000400000344534723472346F34723420340034E6
:10005000593465346C346C346F347734003447343D
:0A0060006534733474346F340034D7
:100A0400831603130F088F3960388F000F14080002
:100A14000A128A1169250A128A1183160313111402
:100A240008000A128A1169250A128A11831603130F
:100A3400111508000A128A1169250A128A1172080E
:100A440083120313930008000A128A1169250A12FB
:100A54008A1172088312031393000800F2008312B0
:100A640003130813720886000A128A114B250A120E
:100A74008A1108008316031788018901831603135A
:100A8400850186018801831203138501860188018B
:100A940008008312031388170730F1007D30F0003B
:100AA400F00B522DF10B522D8312031388130800FF
:100AB400F200831203130817720886000A128A11BF
:100AC4004B250A128A1183120313081308007B2D85
:100AD400140CF000700C0139F10006300310F10D14
:100AE400FF3E031D702D11081F3971078312031374
:100AF4008500831603131419802D812D6A2D110886
:100B04001F39031D862D872D6A2D08000A128A11AC
:100B14003C250A128A110A128A1102250A128A1124
:100B24000A128A11CB250A128A1100308312031388
:100B3400A3000630A2001A30A1008030A0000A12DF
:100B44008A113D260A128A110800F7000A128A1136
:100B54000A250A128A117708F500F6017508F200D1
:100B64007608F3000A128A111C250A128A117408E5
:100B7400F500F6017508F2007608F3000A128A11EE
:100B840026250A128A110A128A1113250A128A11B9
:100B940008000A128A1178260A128A11F301F30A4C
:100BA40001300A128A1114260A128A1127300A12F5
:100BB4008A11EF250A128A110930F6007608F3002B
:100BC40001300A128A1114260A128A1101300A12FB
:100BD4008A11EF250A128A110800F500F301F401C5
:100BE400062E7308750784000A128A1103200A125C
:100BF4008A110A128A115A250A128A110130F3073E
:100C04000318F40A0030F4077308750784000A1205
:100C14008A1103200A128A11003A031D122E132E80
:100C2400F32D0800F400342E73080F39FF3E80388A
:100C34000A128A1130250A128A113C2E73080F39C0
:100C4400FF3EC0380A128A1130250A128A113C2E3E
:100C540073080F39FF3E80380A128A1130250A12B0
:100C64008A113C2E7408013A0319162E033A03190B
:100C7400202E2A2E080083160313871507169401C5
:100C840094132830831203139400831603139101E1
:100C9400831203132008A4002108A5002208A6003B
:100CA4002308A70002300310A40DA50DA60DA70D5F
:100CB400FF3E031D552E2708F3002608F2002508E1
:100CC400F1002408F0000030F7003D30F600093050
:100CD400F5000030F4000A128A11C7260A128A119C
:100CE4007008FF3E83160313930008008312031356
:100CF4008813081386018316031386011A30F4003F
:100D0400F830F300F30B842EF40B842E0000303003
:100D14000A128A1130250A128A110730F4007D3034
:100D2400F300F30B932EF40B932E30300A128A1136
:100D340030250A128A114230F300F30B9F2E000073
:100D440030300A128A1130250A128A113C300A12F4
:100D54008A1130250A128A110C300A128A113025A0
:100D64000A128A1110300A128A1130250A128A11C5
:100D740001300A128A1130250A128A1106300A1229
:100D84008A1130250A128A1108000030FC00003054
:100D9400FB000030FA000030F9007308720471049B
:100DA40070040319D62ED72E242FFD01FD0AE72E39
:100DB4000130F8000310F00DF10DF20DF30DF80BF6
:100DC400DC2E0130F8007808FD07F31FEA2EEB2E25
:100DD400DA2E0130F8000310F90DFA0DFB0DFC0DAD
:100DE400F80BED2E73087702031D022F72087602AA
:100DF400031D022F71087502031D022F700874026F
:100E0400031C052F062F152F7008F4027108031C0C
:100E1400710FF5027208031C720FF6027308031CAB
:100E2400730FF702791401300310F30CF20CF10C78
:100E3400F00CFF3E031D162F0130FD02031D232F6E
:100E4400242FEB2E7C08F3007B08F2007A08F100D3
:100E54007908F00008000A128A1188250A128A11FA
:100E6400D72FAB01AB0A0930A8002808F3000230E1
:100E74000A128A1114260A128A1112300A128A11CD
:100E8400EF250A128A11831203132B08A8002808DD
:100E9400F40050300A128A11A7250A128A1183120B
:100EA4000313AD01AD0AE42F0230A8002808AB00FB
:100EB4000930A8002808F30002300A128A11142607
:100EC4000A128A1120300A128A11EF250A128A1195
:100ED4000A128A110A250A128A115030F2000030CF
:100EE400F3000A128A111C250A128A1183120313B1
:100EF4002B08A800A9012808F2002908F3000A1207
:100F04008A1126250A128A110A128A1113250A1235
:100F14008A11023083120313A8002808AD00E42FBD
:100F24000430A8002808AB000930A8002808F30002
:100F340002300A128A1114260A128A110A300A127D
:100F44008A11EF250A128A11831203132B08A800B1
:100F54002808F40050300A128A11A7250A128A11AF
:100F640083120313AD01E42F0730A8002808AB0057
:100F74000930A8002808F30002300A128A11142646
:100F84000A128A1119300A128A11EF250A128A11DB
:100F9400831203132B08A8002808F40050300A1207
:100FA4008A11A7250A128A11512F831203132D08BF
:100FB400003A0319332F013A0319562F033A031940
:100FC400922FB62F023083120313AA000430A90013
:100FD400B930A800A80BEC2FA90BEC2FAA0BEC2F0F
:100FE400F32FD72F0A128A11002883120313AB019F
:0C0FF400AC01AD0183010A128A112D2FFF
:04400E00D420FF3F7C
:00000001FF
