:100000000A128A11F82F00308A000408840A820735
:100010000034533465346D34613466346F34723473
:100020006F34003447346534733474346F340034BF
:100B1400831603130F088F3960388F000F140800F1
:100B24000A128A11BB250A128A118316031311149F
:100B340008000A128A11BB250A128A1183160313AC
:100B440011150800F0000A128A11BB250A128A1135
:100B540070088312031393000800F2008312031336
:100B64000813720886000A128A11D7250A128A11FC
:100B74000800831603131419C02DC12DBB2D1108B1
:100B84001F39031DC62DC72DBB2D0800831603175F
:100B94008801890183160313850186018801831264
:100BA4000313850186018801080083120313881743
:100BB4000730F1007D30F000F00BDE2DF10BDE2D5F
:100BC4008312031388130800F20083120313081717
:100BD400720886000A128A11D7250A128A11831212
:100BE4000313081308000A128A11C8250A128A116D
:100BF4000A128A118A250A128A110A128A111426E3
:100C04000A128A11003083120313A3000130A200D8
:100C14008630A100A030A0000A128A1105270A120A
:100C24008A1108000A128A1143270A128A11F30151
:100C3400F30A01300A128A1183260A128A110A3031
:100C44000A128A1138260A128A110930F600760827
:100C5400F30001300A128A1183260A128A11013024
:100C64000A128A1138260A128A110800F500F301C3
:100C7400F4014F2E7308750784000A128A110320A9
:100C84000A128A110A128A11E6250A128A110130FF
:100C9400F3070318F40A0030F40773087507840097
:100CA4000A128A1103200A128A11003A031D5B2ECC
:100CB4005C2E3C2E0800F8007808F7007708F9004D
:100CC40079140A128A1192250A128A1179080A12D1
:100CD4008A11A4250A128A110030F000F1000A12C8
:100CE4008A11D7260A128A117008F7007608840040
:100CF4007708831380000A128A119B250A128A112D
:100D04000800F400A32E73080F39FF3E80380A123E
:100D14008A11AF250A128A11AB2E73080F39FF3ED0
:100D2400C0380A128A11AF250A128A11AB2E730831
:100D34000F39FF3E80380A128A11AF250A128A1130
:100D4400AB2E7408013A0319852E033A03198F2E2A
:100D5400992E08000A128A11F5250A128A111530F3
:100D640083120313A8002808AB002C30A80028081D
:100D7400F60050300A128A115D260A128A110630D2
:100D840083120313AA001330A900AD30A800A80BE6
:100D9400C92EA90BC92EAA0BC92E831203132C0822
:100DA4008500B72E0A128A1100280A128A11BB255F
:100DB4000A128A118316031391150A128A11BB258C
:100DC4000A128A11831203131308F200F301720842
:100DD400F4007308F5000A128A11BB250A128A115D
:100DE40070037104031DF72EF82EFC2E83160313D3
:100DF4009112FF2E83160313911611167508F10034
:100E04007408F000080080308316031394008312E2
:100E1400031394161408F039083894008316031346
:100E24009101831203132008A4002108A5002208BD
:100E3400A6002308A70002300310A40DA50DA60DDB
:100E4400A70DFF3E031D1E2F2708F3002608F200FE
:100E54002508F1002408F0000030F7003D30F600CA
:100E64000930F5000030F4000A128A1192270A12A0
:100E74008A117008FF3E8316031393008715071623
:100E840008008312031388130813860183160313BF
:100E940086011A30F400F830F300F30B4F2FF40BF3
:100EA4004F2F000030300A128A11AF250A128A111E
:100EB4000730F4007D30F300F30B5E2FF40B5E2F4C
:100EC40030300A128A11AF250A128A114230F30017
:100ED400F30B6A2F000030300A128A11AF250A1270
:100EE4008A113C300A128A11AF250A128A110C3079
:100EF4000A128A11AF250A128A1110300A128A11B5
:100F0400AF250A128A1101300A128A11AF250A127A
:100F14008A1106300A128A11AF250A128A110800B2
:100F24000030FC000030FB000030FA000030F90013
:100F340073087204710470040319A12FA22FEF2FF8
:100F4400FD01FD0AB22F0130F8000310F00DF10D80
:100F5400F20DF30DF80BA72F0130F8007808FD0708
:100F6400F31FB52FB62FA52F0130F8000310F90D8C
:100F7400FA0DFB0DFC0DF80BB82F73087702031D57
:100F8400CD2F72087602031DCD2F71087502031D43
:100F9400CD2F70087402031CD02FD12FE02F7008BE
:100FA400F4027108031C710FF5027208031C720F1E
:100FB400F6027308031C730FF7027914013003104F
:100FC400F30CF20CF10CF00CFF3E031DE12F013089
:100FD400FD02031DEE2FEF2FB62F7C08F3007B08D4
:100FE400F2007A08F1007908F00008008312031374
:0C0FF400AB01AC0183010A128A11AC2E83
:04400E00D420FF3F7C
:00000001FF
