:100000000A128A11F52F00308A000408840A820738
:100010000034533465346D34613466346F34723473
:100020006F34003452346F346A346F3420342034E7
:1000300020340034563465347234643465342034EA
:1000400000344534723472346F34723420340034E6
:10005000593465346C346C346F3477340034543430
:0800600065346D347034003486
:1006D800831603130F088F3960388F000F14080032
:1006E8000A128A11D3230A128A11831603131114CA
:1006F80008000A128A11D3230A128A1183160313D7
:10070800111508000A128A11D3230A128A117208D5
:1007180083120313930008000A128A11D3230A12C2
:100728008A1172088312031393000800F2008312DF
:1007380003130813720886000A128A11A6230A12E4
:100748008A1108008312031388170730F1007D30DF
:10075800F000F00BAD2BF10BAD2B831203138813B4
:100768000800F200831203130817720886000A12A1
:100778008A11A6230A128A11831203130813080088
:1007880083160317880189018316031385018601DF
:100798008801831203138501860188010800E52B6F
:1007A800140CF000700C0139F10006300310F10D43
:1007B800FF3E031DDA2B11081F397107831203133B
:1007C8008500831603131419EA2BEB2BD42B11087D
:1007D8001F39031DF02BF12BD42B08000A128A11A4
:1007E800C4230A128A110A128A116C230A128A1166
:1007F8000A128A1135240A128A110030831203134F
:10080800A3000630A2001A30A1008030A0000A120E
:100818008A1111250A128A110800F7000A128A1192
:1008280074230A128A117708F500F6017508F20098
:100838007608F3000A128A1186230A128A117408AC
:10084800F500F6017508F2007608F3000A128A111D
:1008580090230A128A110A128A117D230A128A1118
:1008680008000A128A114C250A128A11F301F30AA8
:1008780001300A128A11AC240A128A1127300A128E
:100888008A1159240A128A110930F7007708F300EF
:1008980001300A128A11AC240A128A1101300A1294
:1008A8008A1159240A128A110800F500F301F4018B
:1008B800702C7308750784000A128A1103200A1223
:1008C8008A110A128A11B5230A128A110130F30714
:1008D8000318F40A0030F4077308750784000A1235
:1008E8008A1103200A128A11003A031D7C2C7D2CE0
:1008F8005D2C08000A128A11D3230A128A11831662
:10090800031391150A128A11D3230A128A1183122A
:1009180003131308F400F5017408F6007508F700CE
:100928000A128A11D3230A128A1172037304031D4F
:100938009E2C9F2CA32C831603139112A62C83168E
:100948000313911611167708F3007608F2000800D1
:10095800F600CC2C73080F39FF3E80380A128A1132
:100968009A230A128A11DC2C73080F39FF3EC0380B
:100978000A128A119A230A128A11DC2C73080F3979
:10098800FF3E80380A128A119A230A128A11DC2C37
:100998007608F400F5017508003A0319D42CC22C26
:1009A8007408013A0319AE2C033A0319B82CC22C67
:1009B800080083120313A0000A30F0000030F10091
:1009C8002008FB00FC017B08F2007C08F3000A12F7
:1009D8008A115A260A128A117008FD0079088400C3
:1009E8007D08831380000A30F0000030F100831284
:1009F80003132008FB00FC017B08F2007C08F300CD
:100A08000A128A119B250A128A117008FD007A08B9
:100A180084007D088313800008008316031387155C
:100A28000716940194132830831203139400831635
:100A380003139101831203132008A4002108A500C1
:100A48002208A6002308A70002300310A40DA50D54
:100A5800A60DA70DFF3E031D292D2708F300260824
:100A6800F2002508F1002408F0000030F7003D30BE
:100A7800F6000930F5000030F4000A128A11F42556
:100A88000A128A117008FF3E8316031393000800A8
:100A98008312031388130813860183160313860130
:100AA8001A30F400F830F300F30B582DF40B582DDE
:100AB800000030300A128A119A230A128A1107306C
:100AC800F4007D30F300F30B672DF40B672D303005
:100AD8000A128A119A230A128A114230F300F30B80
:100AE800732D000030300A128A119A230A128A11D3
:100AF8003C300A128A119A230A128A110C300A12FF
:100B08008A119A230A128A1110300A128A119A231A
:100B18000A128A1101300A128A119A230A128A11BA
:100B280006300A128A119A230A128A110800F6015D
:100B3800F31F9F2DA02DA72DF209F309F20A03191F
:100B4800F30AF601F60AF11FAA2DAB2DB02DF00914
:100B5800F109F00A0319F10A700871040319B52D97
:100B6800B62DE52DF501F50AC42D01300310F00D61
:100B7800F10DFF3E031DBA2D0130F4007408F5078E
:100B8800F11FC72DC82DB92D71087302031DCE2D75
:100B980070087202031CD12DD22DD82D7008F202D4
:100BA8007108031CF303F30201300310F10CF00C7D
:100BB800FF3E031DD92D0130F502031DE42DE52D5F
:100BC800C82D76080319E92DEA2DEF2DF209F3094E
:100BD800F20A0319F30A7308F1007208F00008001A
:100BE8000030FC000030FB000030FA000030F90053
:100BF80073087204710470040319032E042E512E15
:100C0800FD01FD0A142E0130F8000310F00DF10D5E
:100C1800F20DF30DF80B092E0130F8007808FD07E6
:100C2800F31F172E182E072E0130F8000310F90DA8
:100C3800FA0DFB0DFC0DF80B1A2E73087702031D35
:100C48002F2E72087602031D2F2E71087502031DC0
:100C58002F2E70087402031C322E332E422E700879
:100C6800F4027108031C710FF5027208031C720F5D
:100C7800F6027308031C730FF7027914013003108E
:100C8800F30CF20CF10CF00CFF3E031D432E013067
:100C9800FD02031D502E512E182E7C08F3007B08F0
:100CA800F2007A08F1007908F0000800F601F11F57
:100CB8005E2E5F2E662EF009F109F00A0319F10A7B
:100CC800F601F60AF31F692E6A2E732EF209F3094C
:100CD800F20A0319F30A0130F4007408F606F70162
:100CE800F8017008710403197A2E7B2EB22EF501D3
:100CF800F50A892E01300310F00DF10DFF3E031D9A
:100D08007F2E0130F4007408F507F11F8C2E8D2E0C
:100D18007E2E01300310F70DF80DFF3E031D8E2EB9
:100D280071087302031D9A2E70087202031C9D2E0F
:100D38009E2EA52E7008F2027108031CF303F3021D
:100D4800771401300310F10CF00CFF3E031DA62EA2
:100D58000130F502031DB12EB22E8D2E760803192F
:100D6800B62EB72EBC2EF709F809F70A0319F80AA8
:100D78007808F1007708F00008000A128A11F223B7
:100D88000A128A110A128A113A270A128A110230A3
:100D980083120313AA000430A900B930A800A80BD5
:100DA800D32EA90BD32EAA0BD32EDA2E0A128A1110
:100DB80074230A128A119130F2000030F3000A12EB
:100DC8008A1186230A128A110030F200F3000A12EF
:100DD8008A117E240A128A11720883120313A8004A
:100DE8002808AC000A128A117D230A128A1183127C
:100DF80003132C0885002E30A8002808F9002F308E
:100E0800A9002908FA002C080A128A11DD240A12FE
:100E18008A11F301F30A02300A128A11AC240A1269
:100E28008A11831203132E08303E0A128A11B52341
:100E38000A128A11831203132F08303E0A128A11EC
:100E4800B5230A128A11023083120313AA00043050
:100E5800A900B930A800A80B2F2FA90B2F2FAA0B78
:100E68002F2F362FC62E0A128A110028DF2FAB012A
:100E7800AB0A0930F8007808F30002300A128A1128
:100E8800AC240A128A1112300A128A1159240A1241
:100E98008A11831203132B08F8007808F4005030E5
:100EA8000A128A1111240A128A1183120313AD013E
:100EB800AD0AF42F0230F8007808AB000930F800CA
:100EC8007808F30002300A128A11AC240A128A1137
:100ED80020300A128A1159240A128A110A128A1118
:100EE80074230A128A115030F2000030F3000A12FB
:100EF8008A1186230A128A11831203132B08F80019
:100F0800F9017808F2007908F3000A128A1190238F
:100F18000A128A110A128A117D230A128A110230D2
:100F2800F800780883120313AD00F42F0430F8009A
:100F38007808AB000930F8007808F30002300A128C
:100F48008A11AC240A128A110A300A128A11592409
:100F58000A128A11831203132B08F8007808F40088
:100F680050300A128A1111240A128A1183120313AB
:100F7800AD01F42F0730F8007808AB000930F8000D
:100F88007808F30002300A128A11AC240A128A1176
:100F980019300A128A1159240A128A11831203136A
:100FA8002B08F8007808F40050300A128A1111242E
:100FB8000A128A11592F831203132D08F800F90118
:100FC8007908003A0319E92FBE2F7808003A031967
:100FD8003B2F013A03195E2F033A03199A2FBE2FAC
:100FE800080083120313AB01AC01AD01AE01AF01E0
:080FF80083010A128A11C12EC7
:04400E00D420FF3F7C
:00000001FF
