:100000000A128A11F72F00308A000408840A820736
:100010000034533465346D34613466346F34723473
:100020006F34003452346F346A346F3420342034E7
:1000300020340034563465347234643465342034EA
:1000400000344534723472346F34723420340034E6
:10005000593465346C346C346F347734003447343D
:0A0060006534733474346F340034D7
:1009E400831603130F088F3960388F000F14080023
:1009F4000A128A1159250A128A1183160313111433
:100A040008000A128A1159250A128A11831603133F
:100A1400111508000A128A1159250A128A1172083E
:100A240083120313930008000A128A1159250A122B
:100A34008A1172088312031393000800F2008312D0
:100A440003130813720886000A128A113B250A123E
:100A54008A1108008316031788018901831603137A
:100A640085018601880183120313850186018801AB
:100A740008008312031388170730F1007D30F0005B
:100A8400F00B422DF10B422D83120313881308003F
:100A9400F200831203130817720886000A128A11DF
:100AA4003B250A128A1183120313081308006B2DC5
:100AB400140CF000700C0139F10006300310F10D34
:100AC400FF3E031D602D11081F39710783120313A4
:100AD4008500831603131419702D712D5A2D1108D6
:100AE4001F39031D762D772D5A2D08000A128A11FD
:100AF4002C250A128A110A128A11F2240A128A1166
:100B04000A128A11BB250A128A11003083120313B8
:100B1400A3000630A2001A30A1008030A0000A12FF
:100B24008A1135260A128A110800F7000A128A115E
:100B3400FA240A128A117708F500F6017508F20002
:100B44007608F3000A128A110C250A128A11740815
:100B5400F500F6017508F2007608F3000A128A110E
:100B640016250A128A110A128A1103250A128A11F9
:100B740008000A128A1170260A128A11F301F30A74
:100B840001300A128A1104260A128A1127300A1225
:100B94008A11DF250A128A110930F7007708F30059
:100BA40001300A128A1104260A128A1101300A122B
:100BB4008A11DF250A128A110800F500F301F401F5
:100BC400F62D7308750784000A128A1103200A128D
:100BD4008A110A128A114A250A128A110130F3076E
:100BE4000318F40A0030F4077308750784000A1226
:100BF4008A1103200A128A11003A031D022E032EC1
:100C0400E32D0800F600242E73080F39FF3E8038C8
:100C14000A128A1120250A128A11342E73080F39F8
:100C2400FF3EC0380A128A1120250A128A11342E76
:100C340073080F39FF3E80380A128A1120250A12E0
:100C44008A11342E7608F400F5017508003A031968
:100C54002C2E1A2E7408013A0319062E033A03198E
:100C6400102E1A2E080083160313871507169401F5
:100C740094132830831203139400831603139101F1
:100C8400831203132008A4002108A5002208A6004B
:100C94002308A70002300310A40DA50DA60DA70D6F
:100CA400FF3E031D4D2E2708F3002608F2002508F9
:100CB400F1002408F0000030F7003D30F600093060
:100CC400F5000030F4000A128A11BF260A128A11B4
:100CD4007008FF3E83160313930008008312031366
:100CE4008813081386018316031386011A30F4004F
:100CF400F830F300F30B7C2EF40B7C2E0000303024
:100D04000A128A1120250A128A110730F4007D3054
:100D1400F300F30B8B2EF40B8B2E30300A128A1156
:100D240020250A128A114230F300F30B972E00009B
:100D340030300A128A1120250A128A113C300A1214
:100D44008A1120250A128A110C300A128A112025D0
:100D54000A128A1110300A128A1120250A128A11E5
:100D640001300A128A1120250A128A1106300A1249
:100D74008A1120250A128A1108000030FC00003074
:100D8400FB000030FA000030F900730872047104AB
:100D940070040319CE2ECF2E1C2FFD01FD0ADF2E69
:100DA4000130F8000310F00DF10DF20DF30DF80B06
:100DB400D42E0130F8007808FD07F31FE22EE32E4D
:100DC400D22E0130F8000310F90DFA0DFB0DFC0DC5
:100DD400F80BE52E73087702031DFA2E72087602CB
:100DE400031DFA2E71087502031DFA2E7008740291
:100DF400031CFD2EFE2E0D2F7008F4027108031C37
:100E0400710FF5027208031C720FF6027308031CBB
:100E1400730FF702791401300310F30CF20CF10C88
:100E2400F00CFF3E031D0E2F0130FD02031D1B2F8E
:100E34001C2FE32E7C08F3007B08F2007A08F100F3
:100E44007908F00008000A128A1178250A128A111A
:100E5400CF2FAB01AB0A0930A8002808F3000230F9
:100E64000A128A1104260A128A1112300A128A11ED
:100E7400DF250A128A11831203132B08A8002808FD
:100E8400F40050300A128A1197250A128A1183122B
:100E94000313AD01AD0AE42F0230A8002808AB000B
:100EA4000930A8002808F30002300A128A11042627
:100EB4000A128A1120300A128A11DF250A128A11B5
:100EC4000A128A11FA240A128A115030F2000030F0
:100ED400F3000A128A110C250A128A1183120313D1
:100EE4002B08A800A9012808F2002908F3000A1217
:100EF4008A1116250A128A110A128A1103250A1266
:100F04008A11023083120313A8002808AD00E42FCD
:100F14000430A8002808AB000930A8002808F30012
:100F240002300A128A1104260A128A110A300A129D
:100F34008A11DF250A128A11831203132B08A800D1
:100F44002808F40050300A128A1197250A128A11CF
:100F540083120313AD01E42F0730A8002808AB0067
:100F64000930A8002808F30002300A128A11042666
:100F74000A128A1119300A128A11DF250A128A11FB
:100F8400831203132B08A8002808F40050300A1217
:100F94008A1197250A128A11492F831203132D08E7
:100FA400A800A9012908003A0319D92FAE2F28084F
:100FB400003A03192B2F013A03194E2F033A031950
:100FC4008A2FAE2F023083120313AA000430A90023
:100FD400B930A800A80BEC2FA90BEC2FAA0BEC2F0F
:100FE400F32FCF2F0A128A11002883120313AB01A7
:0C0FF400AC01AD0183010A128A11252F07
:04400E00D420FF3F7C
:00000001FF
