:060000000A128A110C280F
:10000800FE00030EF1000A08F2000A128A11392DC7
:100018000A128A110F28FA0183120313B301B401DB
:10002800B501B601B701B801B90183010A128A11F5
:10003800F32B87283030F3007308B600CF2831300F
:10004800F3007308B600CF283230F3007308B60007
:10005800CF283330F3007308B600CF283430F300CC
:100068007308B600CF283530F3007308B600CF28E0
:100078003630F3007308B600CF283730F300730822
:10008800B600CF283830F3007308B600CF283930CF
:10009800F3007308B600CF282130F3007308B600C8
:1000A800CF284030F3007308B600CF282330F30080
:1000B8007308B600CF282430F3007308B600CF28A1
:1000C8002530F3007308B600CF285E30F3007308BC
:1000D800B600CF282630F3007308B600CF282A30A0
:1000E800F3007308B600CF283C30F3007308B6005D
:1000F800CF283E30F3007308B600CF282B30F3002A
:100108007308B600CF28831203133408F300F401F0
:100118007408003A03199128822873080F3A0319C2
:100128001E281F3A03192328013A03192828033ADD
:1001380003192D28013A03193228073A03193728D9
:10014800013A03193C28033A03194128013A0319D3
:1001580046280F3A03194B28013A03195028033A45
:1001680003195528013A03195A28073A03195F2831
:10017800013A03196428033A03196928013A031953
:100188006E283F3A03197328013A03197828033A6D
:1001980003197D28822808005629B301B30A0930BB
:1001A800A0002008F60002300A128A1124240A123C
:1001B8008A1112300A128A11D5240A128A1183125E
:1001C80003133308A0002008F50050300A128A11E2
:1001D800FA240A128A116B290230A0002008B30001
:1001E8000930A0002008F60002300A128A112424DF
:1001F8000A128A1120300A128A11D5240A128A1189
:10020800831203133308A0002008F50050300A12A7
:100218008A11FA240A128A116B290430A0002008D6
:10022800B3000930A0002008F60002300A128A1133
:1002380024240A128A110A300A128A11D5240A12B1
:100248008A11831203133308A0002008F5005030E8
:100258000A128A11FA240A128A11FA016B29073044
:10026800A0002008B3000930A0002008F6000230E2
:100278000A128A1124240A128A1119300A128A11C0
:10028800D5240A128A11831203133308A000200808
:10029800F50050300A128A11FA240A128A11FA015A
:1002A800FA0A6B29831203133508A000A10121085B
:1002B800003A0319602933292008313A0319D12853
:1002C800033A0319F028063A0319112933290800BB
:1002D8000A128A11BA250A128A119130F3000030E5
:1002E800F4000A128A11A7250A128A110030F300B5
:1002F800F4000A128A1155240A128A11730883120B
:100308000313AA002A08B4003408FC3EAA002A08ED
:10031800B4000A128A11B1250A128A118312031332
:1003280034083906031999299A29D5290A128A11F4
:100338001D200A128A11831203133408AA002A08FE
:10034800B9003730AA002A08A4003830AB002B08BF
:10035800A50034080A128A118C230A128A11F601A0
:10036800F60A02300A128A1124240A128A11831208
:1003780003133708303E0A128A115A250A128A11C5
:10038800831203133808303E0A128A115A250A12BA
:100398008A118312031336080A128A1185250A1254
:1003A8008A11080083120313A101F41FDC29DD2937
:1003B800E429F309F409F30A0319F40AA101A10ACB
:1003C800F61FE729E829F129F509F609F50A0319BD
:1003D800F60A0130F7007708A106A201A301730805
:1003E80074040319F829F929302AA001A00A072A58
:1003F80001300310F30DF40DFF3E031DFD290130FC
:10040800F7007708A007F41F0A2A0B2AFC290130F5
:100418000310A20DA30DFF3E031D0C2A74087602DB
:10042800031D182A73087502031C1B2A1C2A232A79
:100438007308F5027408031CF603F602221401304F
:100448000310F40CF30CFF3E031D242A0130A00214
:10045800031D2F2A302A0B2A21080319342A352A8A
:100468003A2AA209A309A20A0319A30A2308F40035
:100478002208F30008000030F7000030F6000030D2
:10048800F5000030F400831203132308220421042A
:1004980020040319502A512A9E2AF801F80A612AD1
:1004A8000130F3000310A00DA10DA20DA30DF30B55
:1004B800562A0130F3007308F807A31F642A652A37
:1004C800542A0130F3000310F40DF50DF60DF70D65
:1004D800F30B672A23082702031D7C2A2208260219
:1004E800031D7C2A21082502031D7C2A20082402DA
:1004F800031C7F2A802A8F2A2008A4022108031CB3
:10050800210FA5022208031C220FA6022308031CA0
:10051800230FA702741401300310A30CA20CA10C22
:10052800A00CFF3E031D902A0130F802031D9D2AEE
:100538009E2A652A7708A3007608A2007508A100FC
:100548007408A0000800F901F61FAB2AAC2AB32AE8
:10055800F509F609F50A0319F60AF901F90AF41F6B
:10056800B62AB72ABC2AF309F409F30A0319F40ACC
:10057800730874040319C12AC22AF12AF801F80A77
:10058800D02A01300310F30DF40DFF3E031DC62AD7
:100598000130F7007708F807F41FD32AD42AC52AB0
:1005A80074087602031DDA2A73087502031CDD2A13
:1005B800DE2AE42A7308F5027408031CF603F6021F
:1005C80001300310F40CF30CFF3E031DE52A013043
:1005D800F802031DF02AF12AD42A79080319F52A0A
:1005E800F62AFB2AF509F609F50A0319F60A760828
:1005F800F4007508F3000800831203138813081326
:1006080086018316031386011A30F700F830F600C6
:10061800F60B0C2BF70B0C2B000030300A128A114A
:1006280091250A128A110730F7007D30F600F60B83
:100638001B2BF70B1B2B30300A128A1191250A123B
:100648008A114230F600F60B272B000030300A12D0
:100658008A1191250A128A113C300A128A119125B1
:100668000A128A110C300A128A1191250A128A116B
:1006780010300A128A1191250A128A1101300A12C1
:100688008A1191250A128A1106300A128A119125B7
:100698000A128A1108008316031387150716940196
:1006A80094132830831203139400831603139101C3
:1006B800831203132808AC002908AD002A08AE00ED
:1006C8002B08AF0002300310AC0DAD0DAE0DAF0D11
:1006D800FF3E031D672B2F08A3002E08A2002D083C
:1006E800A1002C08A0000030A7003D30A60009306A
:1006F800A5000030A4000A128A113F220A128A11AA
:10070800831203132008FF3E831603139300080087
:1007180083120313A9000A30F3000030F4002908FB
:10072800A600A7012608F5002708F6000A128A1174
:10073800D6210A128A11730883120313A800240809
:1007480084002808831380000A30F3000030F40086
:100758002908A600A7012608F5002708F6000A12AE
:100768008A11A7220A128A11730883120313A80098
:1007780025088400280883138000080003308A00B5
:100788000408840A82070034533465346D346134B4
:1007980066346F3472346F34003452346F346A34D0
:1007A8006F342034203420340034563465347234A5
:1007B80064346534203400344534723472346F3410
:1007C800723420340034593465346C346C346F34EA
:1007D80077340034543465346D34703400340A127C
:1007E8008A1183240A128A110A128A11D0200A1245
:1007F8008A11023083120313B2000430B100B930F9
:10080800B000B00B052CB10B052CB20B052C0C2C31
:100818000A128A116C210A128A11023083120313F8
:10082800B2000430B100B930B000B00B192CB10BD4
:10083800192CB20B192C202CF82B0A128A110C280F
:10084800F900442C76080F39FF3E80380A128A11C5
:1008580091250A128A11542C76080F39FF3EC038A8
:100868000A128A1191250A128A11542C76080F3916
:10087800FF3E80380A128A1191250A128A11542CD7
:100888007908F700F8017808003A03194C2C3A2C3B
:100898007708013A0319262C033A0319302C3A2C0D
:1008A80008000A128A1178250A128A11831603137E
:1008B80091150A128A1178250A128A1183120313D4
:1008C8001308F500F6017508F7007608F8000A1213
:1008D8008A1178250A128A1173037404031D752C72
:1008E800762C7A2C8316031391127D2C831603130E
:1008F800911611167808F4007708F30008000A1218
:100908008A114B250A128A110A128A11C3250A1262
:100918008A110A128A11CB250A128A110A128A111F
:10092800AF240A128A110A128A111E250A128A1184
:10093800003083120313AB000630AA001A30A90056
:100948008030A8000A128A114F230A128A118312D2
:100958000313B90108000A128A1100230A128A1126
:10096800F601F60A01300A128A1124240A128A11A1
:1009780027300A128A11D5240A128A1109308312E3
:100988000313A0002008F60001300A128A1124245B
:100998000A128A1101300A128A11D5240A128A1100
:1009A8000800F800F601F701EC2C760878078400B7
:1009B8000A128A11C2230A128A110A128A115A25A6
:1009C8000A128A110130F6070318F70A0030F707F0
:1009D8007608780784000A128A11C2230A128A113B
:1009E800003A031DF82CF92CD92C0800F8000A123B
:1009F8008A11BA250A128A117808F600F7017608D2
:100A0800F3007708F4000A128A11A7250A128A113E
:100A18007508F600F7017608F3007708F4000A1263
:100A28008A119D250A128A110A128A11B1250A1201
:100A38008A110800831603139A010830990083125B
:100A480003139817181683160313181218139816F9
:100A580018158312031318138316031787158710A5
:100A6800831203138C120C120800831203138C1EBA
:100A78003E2D3F2D442D1A08F0007008B5008C1249
:100A880072088A00710E8300FE0E7E0E090083161E
:100A980003178801890183160313850186018801DC
:100AA800831203138501860188010800F50083126B
:100AB80003130817750886000A128A1169250A1295
:100AC8008A1183120313081308008312031388176B
:100AD8000730F4007D30F300F30B702DF40B702D0C
:100AE80083120313881308008316031314197D2D2A
:100AF8007E2D782D11081F39031D832D842D782D07
:100B08000800F30083160313981C8B2D8C2D862D5B
:100B180073088312031399000800F5008312031366
:100B28000813750886000A128A1169250A128A11A3
:100B380008000A128A1178250A128A11730883128A
:100B48000313930008000A128A1178250A128A11E1
:100B5800730883120313930008000A128A11782578
:100B68000A128A1183160313111508000A128A1132
:100B780078250A128A1183160313111408008316A4
:100B880003130F088F3960388F000F1408008B1774
:0A0B98000B17831603138C160800D8
:04400E00D420FF3F7C
:00000001FF
